S00E0000535635312D30332E686578DF
S21400400000300020CD540000A1540000A154000050
S214004010000000000000000000000000000000009B
S214004020000000000000000000000000A154000096
S2140040300000000000000000A1540000A154000091
S214004040A1540000A1540000A1540000A154000097
S214004050A1540000A1540000A1540000A154000087
S214004060A1540000A1540000A1540000A154000077
S214004070A1540000A154000011BB0000A154000090
S214004080A15400007509010021BB0000A1540000E6
S21400409031090100A1540000A1540000A154000001
S2140040A04557000041570000A1540000A1540000ED
S2140040B0A1540000A154000059590000995900006D
S20C0040C064000000000000008F
S2140040C802B4714649084900095649008E4402BCA4
S2140040D87047C04602B4714649084900095C490061
S2140040E88E4402BC7047C046002934D00123002203
S2140040F810B488422CD301242407A14204D281425A
S21400410802D209011B01F8E7E400A14204D2814269
S21400411802D249005B00F8E7884201D3401A1A43E6
S2140041284C08A04202D3001B5C0822438C08A0421D
S21400413802D3001B9C082243CC08A04202D3001BD3
S214004148DC082243002803D01B0901D00909E3E74D
S214004158101C10BC7047002801D00020C04307B4CC
S214004168024802A14018029003BDC046D9000000CC
S2140041780029F0D003B5FFF7B9FF0EBC4243891AF1
S2140041881847C046002941D010B4041C4C40A44629
S21400419801230022002900D54942002800D54042C4
S2140041A888422CD301242407A14204D2814202D299
S2140041B809011B01F8E7E400A14204D2814202D2B9
S2140041C849005B00F8E7884201D3401A1A434C08B6
S2140041D8A04202D3001B5C0822438C08A04202D3EC
S2140041E8001B9C082243CC08A04202D3001BDC0814
S2140041F82243002803D01B0901D00909E3E7101C55
S2140042086446002C00D5404210BC7047002806D0F3
S21400421803DB0020C043400801E08020000607B406
S214004228024802A14018029003BDC04619000000CB
S2140042380029EBD003B5FFF7A7FF0EBC4243891A47
S2140042481847C0467047C04638B50E4B0C4A041C83
S2140042580D1C00F0DBFF002804D1201C291C00F0F0
S2140042683BFF38BD074B064A201C291C00F0B8FB4C
S21400427800F032FF802319064018F2E7C046C04611
S214004288000000000000E041F8B55F4656464D467F
S2140042984446F0B40C03460F640A3443A3465E0053
S2140042A81C03DB0F9C46630A98464D00530F444692
S2140042B81C436D0DC90F760DD2000F1CC000A14619
S2140042C89246AB1B614500D1A2E0002B00DCF0E073
S2140042D8002E0CD1261C164300D1C0E0013B002B53
S2140042E800D041E15C464B46821AE71A21E0D04EE0
S2140042F8B54200D1C8E080244A4627043A4391468E
S214004308382B00DD0AE11F2B00DD4BE12026F61ACC
S2140043184C4652465746B440B740DA4022433E1C05
S2140043284C46771EBE41DC403243261C5B46821A4A
S2140043389F1B904280414642BB1B141C2E1C0F1C20
S214004348180200D4A9E05D02690A88464246002A97
S21400435800D1D4E0404600F063FF051C083D1F2D41
S21400436800DDD5E02822131A201C4146D840A94073
S214004378031C0B43AC40AE4200DD8BE0AE1B711C49
S2140043881F2900DDFBE01F20851B1A1C201CAA40E5
S214004398C840AC401043661EB4410443CB400122DB
S2140043A800260F202040042862D0201DA042A441E9
S2140043B8614201255B182F401C0207D59C4EB2426D
S2140043C800D198E09B4C161C234001325C07C008BD
S2140043D852050443DB08510D012960DD1B037105F6
S2140043E81B0B4E0D002000210A0D201C1105924CB7
S2140043F80B43760575081C402C4363005A08FF07D4
S214004408111C39433CBC90469946A246AB46F8BDBB
S214004418002B00DC8EE0002E2ED0854EB54200D153
S214004428A6E080244E4622041643B146382B00DD0B
S21400443816E11F2B00DD71E12026F61A4A46B24027
S214004448904652464446DA4022435446B440261C18
S214004458741EA6414C463243DC401218F4E0041C95
S2140044680F206A1C5B462E1C0F1C204004289CD17B
S21400447801252F40201C9FE7144300D0DEE06A1C6D
S2140044885B46041C2E1C8CE780215B46041C0A0134
S2140044982E1C86E7761B674D2B40721C81E7251C71
S2140044A81D4300D168E2002E41D08020020313434A
S2140044B894E7002B00D088E0691C4E05740D012C8B
S2140044C800DC1BE15B46161C4C46821A191B904200
S2140044D89B415B42C91A88460B0200D49EE0371AF5
S2140044E8BA4592415E46A41B5342E11A88463C1CD4
S2140044F82E1C67462AE7161C0023002472E7201C99
S21400450800F08EFE2030051C083D1F2D00DC29E734
S214004518031C283B9C40231C00242CE74A46534691
S2140045281A430026002A00D100E70122FEE61D03F2
S2140045382B0B57E7002B00D005E16E1C7405630DA6
S214004548012B00DCABE03A498E4200D131E111186C
S214004558814280414B4642425B449B18DC0749082F
S2140045680C435B08AA1C1CE7314FBD4200D0C7E6C7
S214004578041C80205B460F1C02012E1C11E7301C11
S2140045881F381A1CC240151C202900D183E03F2181
S2140045988E1BB3401C43631E9C412C430122002300
S2140045A80026FEE61C1C203C4F46E7403E1C202BFF
S2140045B873D04022D41A4B46A3401A1C57463A4397
S2140045C8531E9A4132430026B0E65F42002D51D072
S2140045D8174DAE4200D156E180245A4621040A43BC
S2140045E89346382F00DDDBE01F2F00DD79E1202120
S2140045F8CC1B051C5A46A240FD40A04015435B460E
S214004608421E90412843FB4057463C1AA245924119
S2140046184846C11A55424B1B674691E6081C10438C
S21400462831D100270122002304200026C4E6C04614
S214004638FF070000FFFF7FFFFFFF0F80013B002BF7
S21400464824D153461A184C46824280415C44434261
S214004658E3182E1C141C18023ED4721C0F1CA0E66D
S2140046684A4653461A430024002A00D1F5E601229A
S2140046781218E9E75B46034300D083E0231C721C4C
S214004688544667468DE6141C2E1C5FE6CD4EB54292
S21400469800D0CBE66CE700237CE700228EE75E4678
S2140046A80643002D00D0F4E0002E00D14CE14B4626
S2140046B8134300D17EE115184E46854280415E447C
S2140046C84242B3181E0200D482E1BF4F2C1C3B4066
S2140046D802220F1C012664E6BA4D701CA8424BD075
S2140046E8B94F0125254062083B402C1CDF071443C0
S2140046F83C43B21C5B08061C0F1C52E65E4606438B
S214004708002D2CD1002E00D07DE04E46141C1643FA
S21400471887D04B4667460122002642E61E1C203EEE
S2140047284C46F440261C202B00D1D8E04022D41A50
S2140047384B46A3401A1C54462243531E9A41324302
S2140047480024121880E75B42002D37D15C460443EC
S21400475800D0D7E0721C4B4654460F1C21E6002EAC
S2140047686ED14B46141C134300D1DCE080254B4623
S21400477867462A01934E14E68021061C0A01002388
S214004788042019E6013F002F79D1171A5B46BA456F
S214004798AD414946CA1A68423C1C131A6746CFE51B
S2140047A85F46074300230020002F00D12CE7012096
S2140047B82AE780252A0100230420FDE5814DAE4224
S2140047C800D1D3E080245D4622041543AB46382B3F
S2140047D800DDB0E01F2B00DDDBE02025ED1A021C13
S2140047E85C46AC40DA40A840451EA8412243024336
S2140047F85846D840031C55465419544592414B44D4
S21400480850421B1827E74A465646324300D185E0F1
S214004818851B5B464C46A8429241191B56428B1B89
S2140048281E0200D4ADE057463D1A5B46AA458941AC
S214004838E41A4A42A31A67462C1C01220026B0E551
S2140048484D46161C154344D05C468021C0086207B6
S214004858E3080D0310432B4200D181E04C46E108E3
S21400486829427DD1F70866073E430B1C6746700F42
S214004878DB008022F40003431201524E91E5514DAD
S214004888AE4200D0ADE680204B465446674602014D
S21400489887E5002E5ED04C4614431AD0C7088025FC
S2140048A8584643072C03C0081F43204208D04E46EC
S2140048B8F308234204D15246D5087707181C2F431D
S2140048C8C300FC00780F0F1C802103430A013D4EED
S2140048D867E5802632015B46041C3A4E61E50022F5
S2140048E829E7391C20395C46CC40221C202F67D08B
S2140048F84023DF1B5D46BD402843431E98411043B6
S214004908002381E6013B002B2CD150445C469042A4
S214004918AD414C446A42A318041C9CE65B46041C42
S214004928012200263DE58024042100272201274B8A
S2140049384842244E40E55D46054300230022002DEC
S21400494800D158E7012256E7141C4B460F1C0122DB
S214004958002626E5141C80224B461201194E20E537
S214004968061C84E7174A964200D030E70F1C8021C1
S2140049784B4654460A0114E57605760D00230024B6
S21400498830E5181C284300D14BE62C1C01220026D3
S21400499807E51C1C203C5D46E5402C1C202B1CD043
S2140049A84022D31A5A469A400243501E8241224356
S2140049B8002320E75B46041C0F1C01220026F0E4B7
S2140049C8002599E7FF070000FFFF7FFFFFFF7F0036
S2140049D82C1C0F1C01220026E3E40022E4E7C04654
S2140049E8F0B557464E464546E0B4071C0D034E0044
S2140049F8680ACC0F790F08438446111C18035A001E
S214004A08FD00400ADF0F4B0F1843C74BC900760D51
S214004A18520D8A469A4200D1DEE001235F40B9462D
S214004A28BC4200D1A6E0B71A002F00DC0BE1002A32
S214004A3812D15246024300D1D2E0013F002F00D0E7
S214004A485BE151466F1ABD42AD4162466B42101A91
S214004A583D1CC31A371C24E0B34A964200D1DEE058
S214004A6880210B041843382F00DD1EE11F2F00DDC0
S214004A7860E12021C91B021C53468A40FB401A43AA
S214004A8853468B40191C4B1E9941031C0A43FB4096
S214004A98AA1A67469542AD41F81A6B42C31A151C06
S214004AA8371C1A0200D4C2E05E02710A88464246E3
S214004AB8002A00D1EBE0404600F0B2FB021C083AA0
S214004AC81F2A00DDECE02823181A2E1C4146C64093
S214004AD89140331C0B439540974200DDA4E0D01B61
S214004AE8411C1F2900DD0DE11F273A1A2E1C181C31
S214004AF8CE409040954030436A1E9541CB400543D2
S214004B08012100270F262E40042E00D170E02E1D0E
S214004B18AE42AD41684201221B181440180207D560
S214004B28814FB94200D1AEE0804D0F1C2B400131B9
S214004B38F20849055E073243DB08480D012800DC09
S214004B4877E01B037F051B0B7E0D002000210D0D53
S214004B58101C2905764A0B4377057E081A4032430F
S214004B6853005D08291CE40721431CBC904699465F
S214004B78A246F0BDB31A002B00DCA3E0002A3BD007
S214004B88694A96424BD080210F043843382B00DC04
S214004B9814E15346184300270022002800D00122BB
S214004BA85219AA42AD4167446B42FB18151C371CC4
S214004BB81E023CD55C487E1C864200D177E15B49E4
S214004BC801222A400B406808151CD90705430D43E7
S214004BD85B08B91C371C95E7014300D11DE71EE7A3
S214004BE8711C371C0F2663462E40042E00D08EE715
S214004BF8012214402E1C91E752460243F0D0013B96
S214004C08002B09D157467919A9429241554260446A
S214004C184319371C0D1CCBE743498E42B6D180207A
S214004C2863460101371C6DE7BF1A404A1340791CDA
S214004C3868E7151C1D4300D120E2002F3ED08026D1
S214004C4831030B437DE7002F00D085E0721C510529
S214004C584B0D012B00DCEFE05746EA1B95429B41C3
S214004C686746391A5B42C91A88460B0200D49CE08C
S214004C785446651BAA459241C01B5742C31B98461B
S214004C88371C4C4613E70E1C002300225DE7281C41
S214004C9800F0C6FA2030021C083A1F2A00DC12E789
S214004CA8283885402B1C002516E75746384300232E
S214004CB80022002800D1EBE60122E9E61803030BE0
S214004CC8002642E7002B00D0D8E0771C79054A0D6D
S214004CD8012A00DC94E0144B9F4200D1FDE05146C7
S214004CE84919A942AD4162466B428018C218490864
S214004CF8D5070D435308B11C04E70B498E4200D074
S214004D08B1E68CE7061C1F3E1F1CF7403E1C2029F8
S214004D1872D03F22101A83401D436B1E9D413543B7
S214004D28012100230027EDE6FF070000FFFF7FFFB5
S214004D38FFFF0F803B1C203B011CD9400B1C202F7B
S214004D485CD04022D71BB840021C50460243511E76
S214004D588A411A4300239BE67F42002E40D0CA4C65
S214004D68A24200D11FE1802166460B041E43B446CA
S214004D78382F00DDA9E01F2F00DD3DE12023DE1BD4
S214004D88291C6446B440F940B5406B1E9D4121433A
S214004D9863460D43FB4057467D1BC01AAA459B41F8
S214004DA85F42C31B4C46171C7BE60D1C154320D1DF
S214004DB800240121002304260027AFE61F2B4ADC27
S214004DC82021C91A071C52468F40DA403A435746F4
S214004DD88F40391C4F1EB941D8400A43071CDFE6EE
S214004DE864462C4369D1511C031C5546171C4C4677
S214004DF888E6151C371C5AE600238DE70022A4E730
S214004E0867462F43002E00D0D4E0002F00D126E1BD
S214004E185346034300D1E4E051464F19AF42AD4133
S214004E2860446E4283191E0200D44EE197483D1C2A
S214004E3803400221012765E661462943002E29D151
S214004E48002976D151460143B2D0031C55464C463C
S214004E580121002756E61F1C203F011CF9400F1CA5
S214004E68202B00D1C6E04022D31A9840021C504698
S214004E780243531E9A413A43002791E65B42002EAE
S214004E8830D167462F4300D0C8E0511C031C554656
S214004E98171C37E6002965D15746074300D1C8E0F6
S214004EA8031C802055464C460101774F2AE680238E
S214004EB8371C19010426002330E6013F002F6ED167
S214004EC854466146651B401A68E767463D4300231B
S214004ED8002D00D15FE701255DE78026310100231C
S214004EE804261BE668498A4200D1C1E08027664648
S214004EF839040E43B446382B00DDA2E01F2B00DD34
S214004F08D0E02021C91A2E1C67468F408D40DE400F
S214004F183E43291C67464D1EA941DF40351C0D43FC
S214004F283E1C554455459B4130185E428319171C54
S214004F383EE65646064354D05746EA1B6346954215
S214004F48B641191A7342CB1A1E0200D4A2E07D1B82
S214004F586446AA45BF41001B7A42831A4C46012183
S214004F680027CFE5564606433FD0624680215707BE
S214004F78ED08D3080A033D43134208D0C608164274
S214004F8805D15546EC0845072543331C4C46680FA3
S214004F98DB0080260343ED0031013B4FB2E53A497A
S214004FA88A4200D0E4E68026031C55464C4631016A
S214004FB8171CA7E5002F4CD05346034315D062466E
S214004FC88026ED085107D30837030D433B42DED051
S214004FD8C2083A42DBD15546E9084507131C0D437B
S214004FE8D5E76346012100278CE58027390163460B
S214004FF8254F87E500223AE73C1C203C6646E640FB
S214005008331C202F5FD04024E71B6646BE40311C69
S2140050180D43691E8D411D430023BCE6013B002B52
S21400502822D155445545BF417B426044C318171CDE
S214005038BEE58021042200240901154B5642124F72
S2140050486CE563461D430026002D00D169E701255F
S21400505867E78022031C554611010B4F52E5031CD7
S2140050685546012100274DE507498A4200D042E708
S2140050788021031C55460901171C43E57A05560D81
S2140050880023002261E5C046FF070000FFFF7FFF00
S214005098FFFF7F001D1C154300D189E6151C012162
S2140050A800272FE51F1C203F6146F940202B10D013
S2140050B84026F31A67469F403B1C1D436B1E9D41C6
S2140050C80D4300262DE70021A2E73D1C01210027FD
S2140050D818E50023F1E7C046134A0B0330B5051C54
S2140050E848001C0BC90F430D0020934211DD0F48E2
S2140050F883420FDC802250030D4A0443D01A1F282F
S2140051080BDD0C4DEB1ADC40221C5042002900D166
S214005118101C30BD084C0819FBE7C54007482A1C78
S2140051281D18AC402243F0E7FE0300001D040000F3
S2140051383304000013040000FFFFFF7FEDFBFFFFB2
S21400514870B5041E26D000F06BF814490A1A0A280F
S21400515813DD0B38844056052403720D250B0026F4
S21400516800200021301C0E0D33050D4C2B43110575
S2140051781C400C436500690870BD0B23051C181AF3
S2140051881535211CC440A940520525030E1C2D0BBD
S214005198520DE5E7002200250026E1E71E04000080
S2140051A8FFFF0F808446101C62468C46191C634617
S2140051B800E0C0461FB500F003F9002801D400211E
S2140051C8C8421FBD10B500F049F84042013010BD76
S2140051D810B500F0F5F8002801DB002010BD01200E
S2140051E810BDC04610B500F0EBF8002801DD002021
S2140051F810BD012010BDC04610B500F06DF800289F
S21400520801DC002010BD012010BDC04610B500F01E
S21400521863F8002801DA002010BD012010BDC04642
S2140052281C2101231B04984201D3000C10391B0AC9
S214005238984201D3000A08391B09984201D300098D
S214005248043902A2105C40187047C04604030202E4
S214005258010101010000000000000000F0B59446BE
S21400526847461A03061C580080B4170B420D194807
S2140052780D034C00DB0F2D0B640DC90F98468442B6
S21400528808D0144882420DD00120944212D004BCA3
S2140052989046F0BD2B1C33430120002BF7D10D4858
S2140052A88242F1D163463B430120002BEFD1012017
S2140052B89442ECD1BD42EAD16645E8D1414506D0D4
S2140052C8002CE4D1281C3043451EA841DFE7002007
S2140052D8DDE7C046FF070000F0B557464E46454690
S2140052E8E0B4041C4E000803C90F8A46171C590070
S2140052F81A03050B700D160B4A0D3049DB0F9C463A
S214005308884232D02D498A4235D000280FD1291C30
S21400531821434B424B419846002A0BD0002B1AD10A
S214005328E2452CD05546002D18D1012018E0002A59
S214005338F6D19046311C39434B424B414146002931
S21400534806D1002BECD056460120002E08D005E0EA
S2140053580020002B04D16746002FE6D101235842CF
S2140053681CBC90469946A246F0BD2B1C2343C9D0C8
S21400537802214842F4E7331C3B43C6D0F8E7904284
S21400538805DC09DA5246002AE8D00120E8E7544648
S214005398002CE3D10120E3E7B542C3D807D00020AC
S2140053A8B542DDD250460028D8D00120D8E7BC4206
S2140053B8B8D80020BC42F5D3D2E7C046FF070000A5
S2140053C8F0B544465F4656464D46F0B49446061C2D
S2140053D81A035800170B420D2E480D034C00DB0F1E
S2140053E82D0B640DC90F9846844233D02948824253
S2140053F836D0002C19D0002A20D1934663463B436A
S214005408584258415B468246002B1DD05146002024
S214005418002904D14246002A14D1012460423CBC2B
S21400542890469946A246AB46F0BD2B1C33435842DD
S21400543843419B46002AE1D0002BEBD1414515D0CD
S2140054480029EAD10120EAE70028F7D00120002940
S214005458E5D0E2E72B1C33430220002BDFD1C5E75B
S21400546863463B430220002BD9D1C2E79442E7DCCF
S21400547805DBBD42E4D806D00020BD42CFD20029C5
S214005488CBD00120CBE76645DAD800206645F6D3B0
S214005498C5E7C046FF07000000BE7047054B064A32
S2140054A89A600648064981800323437023220270C7
S2140054B87047C04600ED00E00040000000200540B0
S2140054C803E8FFFF0EF0B8FEFFF7E8FF0848094AB2
S2140054D8121A00210DF0B6FE0EF0E2FE0EF060FE87
S2140054E80EF0B8FE002004490AF00AFD0DF07EFE14
S2140054F8F4F3FF1F18020020F4F3FF1F00B5FEE7C1
S21400550800B5064B9862002804D001214A42044B95
S2140055181A6002E000220248026000BD00A00340B4
S21400552840F0005F00B5002804D001204142034A3D
S214005538116002E00022014B1A6000BD40F0805363
S2140055487047C04600B5002804D001204142034AEF
S214005558116002E00022014B1A6000BD00F0805C7A
S2140055680023034A93620348036003490B607047AD
S21400557800A0034040F0005F40F080530D4A00232F
S2140055881360136013601360136013601360136076
S2140055981360136013600848C3738371C372437340
S2140055A80373837343710372437203718372C37107
S2140055B87047C04680F08053BCFAFF1F0E4B01228E
S2140055C850421860186018601860186018601860F4
S2140055D8186018601860186008490123CB738B712F
S2140055E8CB724B730B738B734B710B724B720B71C5
S2140055F88B72CB717047C04680F08053BCFAFF1F91
S21400560810B5041E0A2C1BD802280BD0052809D072
S214005618042807D0092805D0032803D0072801D076
S21400562808280BD10748002104F014FE0022064B78
S2140056381A7006480178A14200D10124034A147062
S21400564810BDC046FAF3FF1FFDF3FF1FFCF3FF1F54
S214005658014B18707047C046F8F3FF1F024B1870CE
S2140056680622024802707047FEF3FF1FFCF3FF1F76
S2140056787047C04600B5002804D001204142034ABE
S214005688116002E00022014B1A6000BD00F0005DC8
S21400569800B58BB00023022101A8C21810798843F0
S2140056A81071013301AAD21810798843107101339A
S2140056B8202BF1D101A90A781A43D0B21023184337
S2140056C8C0B201229043022318430870C87F904353
S2140056D80343CB77024809F065FB0BB000BDC04614
S2140056E80090074000B58BB00023022101A8C2181D
S2140056F8107988431071013301AAD21810798843AB
S21400570810710133202BF1D101A90A781A43D0B2BF
S21400571810230343FE221340022003430B70024863
S21400572809F040FB0BB000BD00900740014B18780D
S2140057387047C04601F4FF1F7047C046044B99687F
S21400574804220A439A600120024B18707047C0462C
S2140057580090074000F4FF1F08B5154B187800287E
S2140057680ED014490A78002A0AD00022124B1A7062
S2140057780120124908701248002104F019FD13E0B0
S2140057880F48642104F014FD00280DD00A4B187841
S214005798132806D90022094B1A70012005490870FB
S2140057A802E00130044908700022014B1A7008BD57
S2140057B800F4FF1FFFF3FF1F02F4FF1F01F4FF1F93
S2140057C804F4FF1F034B18700020034A10700349A7
S2140057D808707047FFF3FF1F01F4FF1F00F4FF1F58
S2140057E808B50120FFF746FF00F05CF8FFF750FF0A
S2140057F808BDC04608B500F059F80020FFF73AFF84
S214005808FFF770FF08BDC0460122014B1A707047AB
S21400581800F4FF1F024B98790738434258417047F7
S2140058280040024070B58AB005AB0024DC730590D2
S21400583808221A739C735C730D781D714E785E711E
S2140058488C789C71CD78DD710E791E724C795C72FD
S2140058588D799D72C979D97243071E0E964301AC9D
S214005868C00820706670211C02AB06AC60CC60C312
S2140058780A7300224A73074809F0FEF90026002832
S21400588803D007250349CD710126301C431E9841D5
S2140058980AB070BD004002400722014B1A727047DA
S2140058A80040024008B5FFF7F7FF08BD30B587B0DF
S2140058B800230093019302930393049305931E48D1
S2140058C801691E4A0A4002616D46AC7803239C4370
S2140058D802231C43AC70E8780F210840202254426B
S2140058E82043E121084006221043E8702020029059
S2140058F8134C049413490391134A05920120287106
S2140059082C7808221443E4B210210C436D7820202A
S21400591828431C436D462C70C4B22143C9B20B43BE
S214005928DBB21A43402002436A700848694609F009
S2140059387BF807B030BDC04600800440FFFFFEFF7E
S21400594840FDA0FF20E0206EC01FC00000400240BF
S21400595810B586B00C4B1A6801321A600B480179EC
S214005968CA070DD5FFF750FF01AC0848211C09F0FF
S2140059789BF9237B082B03D1019802A900F070F845
S214005988C046C04606B010BD0CF4FF1F00400240DB
S21400599808B5214B1879820704D51F4B19790222BE
S2140059A80A431A711C480379D90904D01A4803799E
S2140059B880221A43027118490879420613D51649F7
S2140059C808790C2210400C2805D1072112480172CC
S2140059D800F05CF801E0104B1B790F4B1979402258
S2140059E80A431A7116E00C4B9A79520712D00A49E4
S2140059F8487A002805D0C046C0460722064B9A714A
S214005A0801E000F04BF805490868013008600022FC
S214005A18014BDA7108BDC0460040024008F4FF1F7B
S214005A28024B5A7901218A435A7170470040024056
S214005A38024B597901220A435A71704700400240C6
S214005A4808B5031CFF20072B07D89800034A805880
S214005A580968FFF7E7FE4342584108BDEC430100DA
S214005A6808B50A1C074B984202D00749884204D159
S214005A78C0B2111C02F016FE02E0082100F07EFFFC
S214005A8808BDC046DF0700002107000008B5002053
S214005A9802F082F801F03EFB08BDC04608B50020BB
S214005AA802F090F801F03CFB08BDC046F0B50528AA
S214005AB814D1154B19785F789E78DD781C7958795B
S214005AC89A797940714069406140414051400906E1
S214005AD85F683E02350A0D435D6014E0042812D163
S214005AE80A4BD9795F789E78DD781C7958799A7947
S214005AF87940714069406140414051401F68FF2627
S214005B08B7430F431F60F0BD74FBFF1F80FBFF1FEA
S214005B1800B58F239900884226D08F22930098429A
S214005B2805D8C9281AD01F4988423AD132E01E4AF9
S214005B38904226D01D4B984203D01D49884230D14A
S214005B482CE01C4B19681C480840F022D103084377
S214005B581860C8239800194A108122E0184B186864
S214005B688021884318601CE0164B1868FF22904373
S214005B781860196814480840186000220F4BDA723B
S214005B880FE00021114B197011480170FF220B49D4
S214005B988A7206E001200F4A907002E000200D4A43
S214005BA8507000BDF101000075030000C10400003C
S214005BB88102000030FBFF1FFFFF00FF8801002066
S214005BC808FBFF1FD8FAFF1FFF00FFFFD6FAFF1FCC
S214005BD8D4FAFF1FC001002030B583B0062005F0B8
S214005BE83FFB64235843FF21FEF7CCFAC0B2602877
S214005BF800D922E2022800D82FE201B20091032041
S214005C0860210022AA24630004F094FE82B21505DF
S214005C18DD4B290F0C045D68DC4929402143596097
S214005C2800065C682502290A08435860002A03D043
S214005C38B423580082420ED1D34B59688022D00133
S214005C48084358605C68D14D25405D6059680A0273
S214005C58100A586004E0CC4C6568CD4A2A40626059
S214005C68CC4B5C78E10705D5C74B5C68CA4D254028
S214005C785D6005E0C44D696880225001084368608D
S214005C88C64C0622A05E0AF09DFE011C2831BE4BBB
S214005C980A0618680502290A11431960A48822B260
S214005CA8BF4B9A420DDB101C0521FEF76BFA041C4D
S214005CB83C34BC4BFF2214401868904320431860BD
S214005CC804E0B8480568FF218D430560022005F00A
S214005CD8F9FA002826D0022005F0D2FA8025A90075
S214005CE8884208D9B04C6168B04B0B40802002024D
S214005CF81343636007E0AC4C6368AC4818408022E6
S214005D08D50128436060A84D6C68A94921406960A0
S214005D186B68A848184068606C6880225102214366
S214005D28696012E0A04D6968A04C0C406C606B6816
S214005D38802210031843686069688024A3020B4316
S214005D486B6068689C4A02406A60944D288804B272
S214005D589A4B9C4205DA944D6C682302180A6860D0
S214005D6818E002B296498A4208DD8F4D6C68230215
S214005D78180AFE221106014369600BE000B20AF019
S214005D8821FE051C2835884C6B0660680202110A3D
S214005D98194361608B4A9188C90713D58A4D6B6889
S214005DA880246101194369606868884A02406A600D
S214005DB86B68802421021943696028680F22904383
S214005DC828601AE0804D6C68734B23406B607D49F1
S214005DD84A7801201040C3026C687C4A22401A4365
S214005DE86A6068687A4B03406B600F240978214024
S214005DF82A68A243101C084328606425754B5C5D1E
S214005E08220706D5744D2B688024A0031843286003
S214005E1804E071480168714A0A4002607049CA780D
S214005E28022A05D16C4D2B686E4A1A402A6007E094
S214005E38694D2B686B4C1C408020C1030C432C60BA
S214005E4807F03EFC0F25644B284001035C68664853
S214005E58204008435860624A517901310D402D02AE
S214005E685C6862482040284358606523594AD55CD8
S214005E78690706D5584B5A68802460021043586054
S214005E8804E0554C60684C4901406160AA0706D595
S214005E98514C606880239A020243626004E04E4BCD
S214005EA85A68444911405960E90706D54A4B5A686A
S214005EB88024E0021043586004E0474C60684C4970
S214005EC80140616064234349CA5C54B2002C06DA78
S214005ED8414B5C68802108032043586004E03E4B31
S214005EE85968334808405860D10606D53A4B5C686E
S214005EF8802041032143596004E0374B5C683D49E4
S214005F0821405960510706D533494B688024A003C1
S214005F181843486004E0304B5C68304820405860BE
S214005F28910706D52C494B688020C4031C434C6057
S214005F3804E029494B68304C1C404C60D10706D514
S214005F48254C6068802213040343636004E0224AF9
S214005F5853682A4919405160EA0606D51E4A53680E
S214005F688024A0041843506004E01B4C6068244951
S214005F7801406160290745D5174B5C688020C50439
S214005F8825435D6043E0C046E4FAFF1FFFFFF0FFCD
S214005F98FFBFFFFFECFCFF1FFFEFFFFF880100209D
S214005FA8D5FEFFFFFCFAFF1F80FBFF1FFF3FFFFF2A
S214005FB8FFFFF7FFFFFFFDFFFFFFFEFF71FEFFFF7E
S214005FC865030000A8FCFF1F74FBFF1FFFF7FFFF19
S214005FD8FF7FFFFF00F2FF1F24FBFF1FFFFFDFFF0F
S214005FE878010020FFFF3FFFFF0FFFFFFFF0FFFFD6
S214005FF8FFFFFBFFFFFFEFFFFFFFBFFFFFFF7FFF78
S214006008FFFFFFFD1B4D69681B4A0A406A601B4973
S2140060188A79002A05D0174C6568194828406060B8
S21400602825E0164B5C7B134D0120204001066B686B
S214006038134A1A400A436A6019E0124B5968124814
S214006048084080246502284358605A681102080AE6
S214006058D024E50505435D60EEE50A4B59680A4815
S214006068084058605C6825022A0A5A60E4E503B0CE
S21400607830BDC04624FBFF1FFFFFFFFB7801002052
S214006088FFFFFFFEE4FAFF1FFFFFF0FF08B5052835
S2140060980DD1104B59680802010F01310F2211402B
S2140060A8090558680C4A02400A435A600EE004285C
S2140060B80CD10A4B59680802010F01310F22114012
S2140060C809055868044A02400A435A60FFF784FDE7
S2140060D808BDC04674FBFF1FFFFF0FFF80FBFF1FB6
S2140060E800B5044B19780020002901D00248007832
S2140060F800BDC046D4FAFF1FD6FAFF1F10B5544B92
S2140061081868C0229105014080246305994209D188
S2140061185048C17830221140102903D0802420012D
S21400612804F0D2FC4A4B586803210840012808D1DD
S214006138484A14790C40012C03D08023580104F0F7
S214006148C3FC434801688A0F012A08D1414CE3780A
S2140061583F208343402B02D0042004F0B5FC3C4982
S2140061684C68C0221440402C08D13A4B18793F217D
S2140061788843402802D0012004F0A6FC344C63680B
S214006188C0229000184080214C00A04208D1314B14
S214006198587903221040012802D0102004F094FCFD
S2140061A82B494C68C023180120408022D100884221
S2140061B809D1284C63790C200340042B03D0802295
S2140061C8500004F081FC22490C68600106D4214B7B
S2140061D8D878420702D5082004F076FC1C4A1168D5
S2140061E80C0107D41B4CE378180703D5802000025F
S2140061F804F06AFC164A1168CA0107D4154CE378FD
S214006208DC0703D5C020C00104F05EFC104A5168C4
S2140062180C242140042907D10E4B18792040042865
S21400622802D0802004F050FC094A516830242140EE
S214006238102908D1074B18792040102803D080224F
S214006248900004F041FC0349014B11CB11C110BD6D
S21400625868FBFF1F18F4FF1F10B5144B1868C02200
S214006268110301408024E302994208D1104881783E
S2140062780C221140042902D0022004F025FC0B4C05
S2140062882368C0208103194080225403A14208D104
S214006298074B987830210840102802D0202004F0B8
S2140062A813FC034B014A11CA11C310BD38FBFF1F6C
S2140062B824F4FF1F10B5BD4B5868800702D400228F
S2140062C8BB498A73B94C63689A070DD5B848827B70
S2140062D8002A09D00120B64B5873B44A51680C06F8
S2140062E8200F002804DC37E00021B14C61731CE164
S2140062F8B04B19790F2291432ED1AC4C6068F0232D
S2140063081840102807D1AA4B0222DA70DC7904213B
S2140063188C43DC7118E0A5494C68F0221440202C08
S21400632807D1A34B0021D970DC7904208443DC71A3
S2140063380AE09E484368F0210B40302B04D19C4C61
S214006348E07904220243E271022008F0BDF898487A
S214006358437B012B00D0E8E0944A1468210F0029FB
S2140063685ADD9448C3780F22934355D1904CA179AF
S214006378002949D18D4803681A0F012A07D18C4C89
S21400638800226271E07902239843E0713CE0874C72
S2140063982168080F022807D1854C01206071E3792F
S2140063A802218B43E3712FE0804B1A68140F032CED
S2140063B806D17F4802234371C1799943C17123E00E
S2140063C87A490868030F042B07D1794803234371D9
S2140063D8C2790224A243C27116E0744A1468210FD7
S2140063E8052907D1724B04225A71DC7902218C43A5
S2140063F8DC7109E06D4803681A0F062A04D16C4C54
S214006408E17902200843E071032008F05DF8684946
S2140064184C7B012C00D088E0644A10680301190FF1
S214006428002942DD634CE27814073ED15F480368D2
S21400643819010C0F082C1EDC00225D4882715B4B8C
S21400644819680C01200FC2B2082A02D85A4B1870D5
S21400645802E00821584C21705548574A13780371B2
S214006468C47908218C43C471FF2007F00FF9042073
S21400647808F02AF815E04D4A1068F023190501407F
S21400648890242205914210D1494800238371C1798E
S21400649808240C43C471FF2007F0F8F8042008F01D
S2140064A813F84348427B012A3FD1404B1C68A1029F
S2140064B8C80E002874DD3F4A93783E241C426FD1EC
S2140064C83B49887900286BD1384A13689C02E10E4C
S2140064D8102904DDA52461003548018060E03348B2
S2140064E802689302DC0EA10008194200A032304B65
S2140064F81A8055E02F4CA178480616D42C48827985
S214006508002A03D101212A4881710EE0284B5C79C4
S214006518042C01D107F0F6FF2549002088710A7976
S214006528002A02D10124224B1C71214A547B012CDB
S21400653831D11E4B19680A022DD51E488278D40917
S21400654829D11B4B9979002914D1194A9478012C22
S21400655803D0174BD979CC0703D50024144B9C706D
S21400656802E00120124A90701148C27901218A433C
S214006578C2710DE00E484279042A01D107F0C2FF25
S2140065880B4C0023A371E17901208143E171A070CF
S214006598012007F099FF074B044A11CA11C304E00B
S2140065A8024A13685802A5D4BFE710BD44FBFF1F74
S2140065B87801002010F4FF1F6801002010B5041CA5
S2140065C8504B98424FD014D88F2081008C4237D039
S2140065D88F2293009C4204D84B48844200D08EE019
S2140065E872E04A498C4276D0494B9C4200D086E0FD
S2140065F85BE04849884252D003D8474A90427ED149
S21400660807E0464884424DD0DF22D1008C4276D13E
S21400661871E04348036819020A0E8C2A04D9FA2244
S2140066289100404B19816AE03D4803681902080E3C
S2140066388200131859009139FF393A4801815EE003
S214006648394A106811680B041A0E7F2101400802A7
S21400665813189909C82903D9C820324BD8724EE0B6
S214006668304AD1724BE0314B1879314A107058795C
S214006678042101402F4A1170D8789B7801025A18D5
S21400668890B21421FDF730FD80B2FF2803D900220E
S2140066982448827233E0C143224B99722FE0FFF7F9
S2140066A82DFD2CE0FFF7D8FD29E0234A907901213B
S2140066B80840224B187003D00121214B19701EE0A8
S2140066C800221F4802701AE01E490B7803221A405F
S2140066D81B48827013E01C4A5078C20707D51A492F
S2140066E84B785A0703D50121154B597007E001224C
S2140066F81348427003E00AF059FCFFF7DBFD134924
S2140067080C6010BD75030000F10100008102000056
S2140067187303000061050000C10400006305000063
S21400672830FBFF1F88010020D8FAFF1F50FBFF1F11
S214006738D6FAFF1FD4FAFF1FF4FAFF1F20F4FF1F34
S214006748C001002014FBFF1F58FBFF1FD0FAFF1FD5
S214006758F8B5614B01229A705A70604C8026E06842
S21400676806705F4D281C002103F022FD6068216931
S21400677808220CF0ACFD216A0E70A81C002103F05C
S21400678817FDA069616A08220CF0A1FD676B3E70D0
S214006798281D002103F00CFDE06AA16B08220CF00E
S2140067A896FDA36C1E70A81D002103F001FD206C49
S2140067B8E16C08220CF08BFDE26D1670281C083080
S2140067C8002103F0F5FC606D216E08220CF07FFDB9
S2140067D80025444C2570444E301C002103F0E8FC8C
S2140067E84248434990C990C0424F3D70B01C0021B2
S2140067F803F0DEFC404B414A11CA11C3404C2570D9
S214006808301D002103F0D4FC3E493F4B81CB81C1AB
S2140068183E480570B01D002103F0CAFC3C4A3D4CBA
S214006828211C81C981C23C4F3D70301C08300021B4
S21400683803F0BEFC394B221C81CA81C33848057058
S214006848301C0A30002103F0B3FC364B211C81C9EA
S21400685881C3354F3D70301C0C30002103F0A8FC76
S214006868324A231C81CB81C231480570301C0E3059
S214006878002103F09DFC2F4A211C81C981C22E4F9E
S2140068883D70301C1030002103F092FC2B4B221C6C
S21400689881CA81C32A480570301C1230002103F0D3
S2140068A887FC284B211C81C981C3274F3D70301CAB
S2140068B81430002103F07CFC244E82CC82C6244C83
S2140068C8A222A554A1202554A023E55421490D70E1
S2140068D8214F3D70F8BDC04688FBFF1F04F0FF1F20
S2140068E830F4FF1F66FBFF1F44F4FF1F08FBFF1F63
S2140068F87045010065FBFF1F38FBFF1F5845010068
S214006908E1FAFF1F68FBFF1F4045010062FBFF1FFF
S21400691830FBFF1F604501007CFBFF1FD8FAFF1FF6
S2140069282CFBFF1F50FBFF1FE3FAFF1F14FBFF1F84
S21400693863FBFF1FF4FAFF1FE2FAFF1F44FBFF1F6B
S21400694860FBFF1F58FBFF1F4CFBFF1FECFAFF1FE7
S21400695890FBFF1F5CF4FF1F40F4FF1F00B583B0D9
S214006968009108236A46938080B26946FFF768F864
S2140069780138431E984103B000BDC04670B50D1CD3
S214006988A223154CE65C092E24D814490B789E429F
S21400699801D9124C2670104CA026A15D0B01185187
S2140069A818190430111C2A1C0CF091FCA65D320143
S2140069B8A1180D73A225635D013363550136F4B241
S2140069C8092C03D8A020044E345403E00021A02547
S2140069D8014A515570BDC04690FBFF1F34FCFF1F8F
S2140069E8F0B557464E464546E0B482B0FFF718F86D
S2140069F8A54B1C7800221A70FFF71AF8002C0BD04B
S214006A08A24D2E78FF2E02D00136A04F3E70A04829
S214006A18002103F0CDFB6DE09D489E4903F0C8FBBE
S214006A28002867D000209949087063E0FEF7F8FF51
S214006A38A120295C0A0154596B46AA18043281CA57
S214006A4881C3AF5D013FAF550131C8B2092803D8ED
S214006A58A121914B585403E00027A1208E4A1754D1
S214006A68FEF7E6FFC92C2AD08C498C4200D1F6E204
S214006A788B4B9C4200D1F4E28A4FBC4200D1F2E232
S214006A888F208200944200D1EFE287498C4200D1E1
S214006A98EDE2864B9C4200D1EBE2854FBC4200D12A
S214006AA8E9E2DF20C200944200D1E6E281498C4246
S214006AB800D1E4E2A823DF00BC421FD1E1E20020B7
S214006AC8C200111A8B007C4FFA18904641007B488A
S214006AD84018002103F06CFB4346586869460822B4
S214006AE80CF0F5FB4746F96802220A70201CFFF7EF
S214006AF865FD03E0684B9946A2261D1C4C46A25D20
S214006B08002A93D1002004F0CBFB6D490F78FBB226
S214006B18022B17D0032B23D0012B09D069486A49CA
S214006B2803F046FB002830D00120654D287030E081
S214006B38664C021991B2664FB9422AD90226604BB2
S214006B481E703BE0634C0619B5B2634FBD4235D89C
S214006B585C48002103F02CFB0322594802702DE004
S214006B685A4D401984B25A4A944203D955480021CE
S214006B7803F01EFB53489621890003F019FB0028F2
S214006B8803D001254E4B1D7003E04D4F3E78012E75
S214006B9814D13E480478002C10D101224F498A703F
S214006BA8454C08273E19B046261C1836251C1435B1
S214006BB80027424B994601208246A7E00221474B10
S214006BC899703E4E301C002103F0F2FA444D2F789F
S214006BD80124A7432F70B01C002103F0E9FA4148AE
S214006BE80278A2430270301D002103F0E1FA3E4904
S214006BF80B78A3430B70B01D002103F0D9FA3B4D68
S214006C082F78A7432F70301C0830002103F0D0FAE5
S214006C1837480278A2430270301C0A30002103F07D
S214006C28C7FA34490B78A3430B70301C0C3000218C
S214006C3803F0BEFA304D2F78A7432F70301C0E3065
S214006C48002103F0B5FA2D480278A2430270301CE2
S214006C581030002103F0ACFA29490B78A3430B70D7
S214006C68301C1230002103F0A3FA264D2F78A743D4
S214006C782F70301C1430002103F09AFA224E307818
S214006C88A0433070BCE0C04640F4FF1F5CF4FF1F12
S214006C985EF4FF1F8813000090FBFF1F63050000CB
S214006CA861050000C104000075030000F101000042
S214006CB873030000810200000C44010044F4FF1F27
S214006CC83CF4FF1F3EF4FF1FDC050000E4DAFFFF7C
S214006CD8581B0000B7D9FFFFFE18000088FBFF1FEF
S214006CE866FBFF1F65FBFF1FE1FAFF1F62FBFF1F26
S214006CF87CFBFF1F2CFBFF1FE3FAFF1F63FBFF1F36
S214006D08E2FAFF1F60FBFF1F4CFBFF1F780048449A
S214006D184246118803F04CFA002869D063681A784E
S214006D283168087802401A70636819782A681078FB
S214006D380843187063685A783168487802405A7071
S214006D48636859782A6850780843587063689A7850
S214006D583168887802409A70636899782A689078CB
S214006D68084398706368DA783168C8780240DA7041
S214006D786368D9782A68D0780843D87063681A791F
S214006D883168087902401A71636819792A68107997
S214006D980843187163685A793168487902405A710D
S214006DA8636859792A6850790843587163689A79EC
S214006DB83168887902409A71636899792A68907967
S214006DC8084398716368DA793168C8790240DA71DD
S214006DD86368D9792A68D0790843D87143465968D0
S214006DE80A7850460243D3B20B702068FEF790FE2E
S214006DF81C3401371C2188441C361C350B2F85D1C2
S214006E080124A44A547000F093FE002802D1002101
S214006E18A04B597003F050F9002802D100259D4F69
S214006E287D70002004F03CFA86B29B483418A2B263
S214006E389A498A420CD99A480A2103F0B9F90028D7
S214006E4802D00125974B1D709748002103F0B0F932
S214006E58964FF619B0B2964CA0420CD89248962196
S214006E6803F0A6F9002802D000228E490A708C4842
S214006E78002103F09DF98B4D2B78012B07D18D4F00
S214006E887E68300703D40027824D6F70FBE0814888
S214006E984478012C00D0F6E0874A117804294AD8AD
S214006EA88D006B189F00854EF4192078FEF7FEFDBE
S214006EB820786168FFF752FD002800D1E3E02078CB
S214006EC8FFF7E4F8E068017802220A4302707A4D78
S214006ED82B785F007A4EF019002103F069F9FF2439
S214006EE82C7028E07549CE6D327854B2002C00DB41
S214006EF8C9E0724F5025785DFEF7D8FD785D796D4C
S214006F08FFF72CFD00280AD06C4E5023F05CFFF7E4
S214006F18BDF8F46D217802220A432270B3E00421FA
S214006F2806E0002104E0012102E0022100E003213E
S214006F3861480170A7E061480189614803F038F9A3
S214006F48002818D05D49CA6815786BB2002B12DA8B
S214006F585A4F3878FEF7AAFD38787968FFF7FEFCAE
S214006F680028DED0554E3078FFF790F8F468207881
S214006F78022101432170514A918B5148023003F097
S214006F8817F9002818D04D4D2B6A1F787EB2002EB0
S214006F9812DA4A4C207DFEF789FD207DA169FFF7AD
S214006FA8DDFC0028BFD0454D287DFFF76FF8286A1E
S214006FB8017802220A430270404B198E404804307A
S214006FC803F0F6F800281AD03C4F7E6B347865B28A
S214006FD8002D14DA394F2826B85DFEF767FDB85D30
S214006FE8F96AFFF7BBFC00289FD0344C2820205CA9
S214006FF8FFF74CF8636B197802220A431A70442587
S2140070082E4F795B2E48063003F0D2F800281BD0A6
S2140070182A4EB46C207843B2002B15DA274F3C254D
S214007028785DFEF743FD785D396CFFF797FC00281E
S21400703800D17CE7214E3C22B05CFFF727F8B46C01
S214007048207802230343237058271C4DE95B1C480D
S214007058083003F0ADF8002800D043E713E001201D
S2140070682EE502202CE503202AE5042028E5052045
S21400707826E5062024E5072022E5082020E5092045
S2140070881EE50A201CE502B01CBC90469946A2469E
S214007098F0BDC04688FBFF1FB4E2FFFF10270000C4
S2140070A82CF4FF1F5DF4FF1F60F4FF1FBFE0FFFF17
S2140070B82623000044FBFF1F00F0FF1F04F0FF1FFD
S2140070C830F4FF1F10B5041C002004F0E9F880B265
S2140070D80C4B984214D9042C12D8A1000A19940013
S2140070E80948031918785968FFF738FC002807D0AC
S2140070F806490A78540006480019002103F058F893
S21400710810BDC0464B1D000004F0FF1F00F0FF1F17
S21400711830F4FF1F0122014B1A70704740F4FF1F1E
S2140071287047C046034B1978022088429241504265
S2140071387047C0465CF4FF1FF8B55F4656464D4696
S2140071484446F0B4BC48052103F032F8002800D1C4
S21400715895E1002005F0ACFAB84B19684807850E8B
S214007168B74A167F3824A6432E43F7B2177701216D
S214007178B448C1701B68DA0604D540242643B04FCD
S2140071883E7703E04025AF43AD4A1777AB4B1E6802
S214007198B1058D0F18688203940F1F683E05B10F5E
S2140071A8A74A507F0327B84328430C25A843A400C2
S2140071B820433026B04309010843C0B2C7B2577708
S2140071C81B689D0603D540242043507703E04022E1
S2140071D897439B4D6F7799490868460606D5984D9C
S2140071E86C7F802671422143697704E0944F7B7F49
S2140071F87F2213407B7794488779002F06D1904CDE
S214007208E67E802148423043E07604E08C4BDA7E06
S2140072187F252A40DA768D4F3B689D07884A167F79
S2140072280324A643A90F0E43F0B210773F683A0628
S21400723804D504221643824C267703E00423984399
S2140072487F4D2877824E3168CD0306D57C4D2C7F3E
S2140072588022564226432E7704E07948077F7F230C
S2140072681F4007777B490868060603D47A4F3B78A1
S214007278012B11D1724F0323784D2C781C403A7A93
S2140072889A4314430C26B4437549087803409D0076
S214007298231C2B433B7209E0694D2C7A0F2294433A
S2140072A82C7200266D490E706D4806706D4F0323CC
S2140072B8BA781A40624C617A99431143614D0126A7
S2140072C86E700C208143FF783B409A000B1C1343DA
S2140072D86372FEF705FF60736E70FEF701FF002805
S2140072E808D0574FBB7A40221A43BA720124554D2C
S2140072F86C7007E0524CA57A40218D43A572012692
S2140073085048467058494E79B00705D54C4CA57A72
S21400731820222A43A27204E04948877A20239F4302
S2140073288772012647494E7047488779002F08D14B
S214007338454B5C79042C04D14148C1780E43C6708D
S21400734804E03F4DEA780126B243EA703C4FFB78EA
S21400735802241D1CA5433C4A567A012E04D1042754
S2140073683D43374BDD7003E0062083433449CB703A
S214007378334CE57808222E1C964333488779002F2D
S21400738804D1102426432E4DEE7003E018218D43B9
S2140073982B4BDD702C4AD679710707D5284D2A79EC
S2140073A80324A243022002432A7112E02648C17829
S2140073B8002907D1224A107903218843012318435C
S2140073C8107106E0022904D11D4B1D790324A5433C
S2140073D81D7126490B78002B05D019494B790120D9
S2140073E81843487104E0164D6A790124A2436A716D
S2140073F80125144A1570144CE3881D490B40B0202B
S2140074080501AB4205D10E49CD7840202843C87007
S21400741804E00B4AD3784024A343D370002F29D125
S214007428094FBA78012A01D0F30723D5044DE97825
S21400743820200843E87022E06AF4FF1F38FBFF1F8D
S21400744800F2FF1FECF9FF1F7801002014FBFF1F56
S21400745844FBFF1F08FBFF1FC0010020620100203D
S21400746859010020A8FCFF1F50FBFF1F5CFAFF1FF6
S214007478FF0B0000D04EF3782024A343F370CF4FC1
S2140074887A7BD50700D493E0CB49CD4B37200F5CE9
S2140074983E045C68CB4A224032435A603625485D33
S2140074A80602B2465C68C84F3C4034435C603822EB
S2140074B88C5C6506680F6E46307030780722104080
S2140074C85D6895432E1C06435E6039200A5C5509A4
S2140074D8012005402E01B1465D68AC46102566467B
S2140074E8AE434D4635435D60D60906407501AB464A
S2140074F85E682025AE435D4635435D6096080325E5
S214007508AB462E40B601B0465D68AC46C02566461A
S214007518AE4345462E435E605E68374056463E4359
S2140075285E60E70907403F065D68A84E2E403E436A
S2140075385E605F4617407E065F68A54D3D40354352
S2140075485D6096090640F6065F68A24D3D403543E5
S2140075585D601209A04B104006051F689F4838401A
S214007568304318600F252C40E2001C687826B44388
S21400757814431C603A23C95C8E0705D5984CA68828
S21400758840223243A28004E0954FB8884025A8439D
S214007598B8809448002102F00BFE884B5F7B0121DF
S2140075A88F435F738E4885888F4C2C4084800BE011
S2140075B88C488E4902F0FCFD002805D0884EB3881A
S2140075C8802465001D43B5807C4EF27AD0073CD5F2
S2140075D82E20794D2C5CA1070CD0854F39788A0768
S2140075E80DD48348057802242C430470802003F0C9
S2140075F86BFA04E07E4E327802239A4332702F26C6
S2140076086D4A935D5D060CD5794D2C7866070DD4CA
S214007618774E337804221A433270102003F054FA57
S21400762804E0734F38780421884338707148002185
S21400763802F0BEFD6A4FB88820218843B8805F4DA7
S214007648EC7A0126B443EC720AE06A48674902F00D
S214007658AFFD002804D0624B9F88202139439980CB
S214007668564B1A7BD0073FD53225534C665D3307F9
S2140076789A0F0DD05E4D2C78E1070ED45C4E337809
S21400768801221A4332708027B80003F01DFA04E07E
S214007698574F3878012188433870332046490D5CA7
S2140076A87F2D0DD9524A17783A070ED450480178DC
S2140076B808250D4305708024600003F005FA04E0F1
S2140076C84B4C267808239E4326704B48002102F030
S2140076D86FFD434EB38880229343B380374F387B81
S2140076E80121884338730AE04348404902F060FDA8
S2140076F8002804D03A4FB88880210143B9802F4D1E
S2140077082C7AE50724D5364F2B4C2620215C4D06CF
S214007718AE0F7E702823E25C1009387037480021C7
S21400772802F046FDBF8801213D1C8D43234E337A67
S2140077388B4333722A20245CE60604D504273D438F
S214007748274EB5800FE005218F43254DAF800AE010
S2140077582A48264902F02CFD002804D0204EB3887B
S21400776801221A43B280154B5A7AD0074AD5124FCF
S2140077782B26BB5D1A4C03221A40A2701807810FED
S214007788E1701F48002102F013FDA58802262C1C74
S214007798B4430A4A507A0123984350722C217F5CDE
S2140077A83B4204D008252C430D4A948038E00A262C
S2140077B8B5430B4CA58033E000F2FF1F20FAFF1FED
S2140077C8FCFAFF1FFFFF00FFFF00FFFFFFFFFFFEA3
S2140077D8FFFFFFF9FFFFFFF724FBFF1FFFFFEFFF89
S2140077E8A8FCFF1F68F4FF1FFFFEFFFF88130000BA
S2140077F870FCFF1F62F4FF1F6EF4FF1F64F4FF1F88
S21400780866F4FF1F9B489C4902F0D2FC002807D06C
S2140078189A48848802212143818000258570C57096
S2140078289748837DD9070ED59648002102F0C0FCFC
S214007838924DA888944A0240AA80914B9F7D0121C8
S2140078488F439F750BE08F488B4902F0B1FC0028E8
S21400785805D08A4FB9888026B4000C43BC80884E71
S214007868747EE20700D4FFE00125AC4384484476E2
S2140078786423864AD75C7D070AD5854CE568002DC3
S21400788809D10120824BD860042003F01DF902E0DC
S21400789800217F4EF16064277C4AD15DCE070AD569
S2140078A87B4DE869002809D10127794BDF61402024
S2140078B803F00AF902E00026754CE6616421734A73
S2140078C8565CB0070BD572488769002F0AD101218C
S2140078D86F4B99618022100103F0F6F802E000244D
S2140078E86B4DAC616426694CA55D29070BD56849C4
S2140078F84B69002B0AD10122654E72618024600113
S21400790803F0E2F802E00020614F786164255F48E2
S214007918475DFA060AD55E4A1669002E09D1012483
S2140079285B4D2C61012003F0CFF802E00021584B94
S21400793819616420554F395C8D060BD5544E746B0F
S214007948002C0AD10125524845638027F80103F028
S214007958BBF802E000224E4B5A6364214B4A535C44
S2140079685E060BD54A4D286B00280AD101274849E0
S2140079780F638022900103F0A7F802E00026444C2B
S21400798826636423414EF45C7F2C0AD9404F7968FD
S214007998002909D101223E4B5A60102003F094F8C2
S2140079A802E000253A4845606526384CA55DE8079C
S2140079B80BD537498A68002A0AD10126344B9E60BF
S2140079C88024600003F080F802E00020304FB860A2
S2140079D865252E48475DB9070AD52D4E336A002B14
S2140079E809D101242A4D2C62022003F03DFA02E058
S2140079F80021274A11626520244F395C4A070AD5B8
S214007A08234B5C6A002C09D10125214845620120D8
S214007A1803F02AFA02E000221D4E726265271B490F
S214007A28CA5D15070AD51A4CA56A002D09D101208A
S214007A38174FB862102003F017FA02E00026144B1E
S214007A489E626521114A565CF6060AD5104DE86A0C
S214007A58002809D101270E49CF620F2003F004FA47
S214007A6802E000240A4BDC623CBC90469946A246DB
S214007A78AB46F8BD66F4FF1F88130000A8FCFF1F7E
S214007A8820FAFF1F6CF4FF1FFFFDFFFF00F2FF1F29
S214007A9870FCFF1F024B99880840431E98417047A8
S214007AA8A8FCFF1F08B500F023F800F027F800F040
S214007AB831F8002006F0B0FB08BDC04608B500F057
S214007AC823F8024B1A7801321A7008BD70F4FF1FAB
S214007AD808B500F00DF800F011F8034B1978034AC2
S214007AE811700020187008BD70F4FF1F71F4FF1F96
S214007AF80122014B1A70704777F4FF1F0122014BD1
S214007B081A70704772F4FF1F0022014B1A707047F4
S214007B1872F4FF1F08B50122034B1A7003480021B0
S214007B2802F046FB08BDC04676F4FF1F74F4FF1F3C
S214007B3808B5094B187800280BD00848502102F0E1
S214007B4837FB021C0020002A05D00021024B1970C2
S214007B5801E00349087808BD76F4FF1F74F4FF1F98
S214007B6872F4FF1F08B50020FFF79CFF0023064AA3
S214007B781370064803700121054B1970054800214B
S214007B8802F016FB08BDC0467EF4FF1F7DF4FF1FFB
S214007B987CF4FF1F7AF4FF1F08B50122064B1A7003
S214007BA806480178013101700548002102F000FB03
S214007BB80020FFF783FF08BD7DF4FF1F7EF4FF1F3C
S214007BC878F4FF1F08B50023034A137003480370B0
S214007BD80020FFF77DFF08BD7DF4FF1F7EF4FF1F22
S214007BE808B51A4B187800280CD019483C2102F022
S214007BF8DFFA002829D00020144B18700020FFF761
S214007C0861FA22E013490A78012A17D112490A783C
S214007C18052A09D81148322102F0CAFA002814D0D9
S214007C280020FFF74FFA10E00C48C82102F0C0FA0F
S214007C3800280AD00020FFF745FA06E0044800218D
S214007C4802F0B6FA0020044B187008BD7CF4FF1F3B
S214007C587AF4FF1F7DF4FF1F7EF4FF1F78F4FF1FE2
S214007C6808B50023074A904209DBF02306498842F4
S214007C7805DC0521FCF786FA031C5033DBB2181C1A
S214007C8808BDC04671FEFFFF1F03000000B50021B7
S214007C98012801D1014B1978081C00BDC8FCFF1F3C
S214007CA808B5012801D1024B197006F0F5FD08BD8C
S214007CB8C8FCFF1F08B5031CFF200E2B47D89800EA
S214007CC8234A11588F4623480422805EFFF7C8FFD0
S214007CD83DE0204A0020105EFFF7C2FF37E01D4B4C
S214007CE80622985EFFF7BCFF31E01A490822885E34
S214007CF8FFF7B6FF2BE0184B9A790020002A26D10A
S214007D081548007923E01449487920E0124A10887B
S214007D1808F058FEC0B21AE0052003F0A1FA16E0F3
S214007D28042003F09DFA12E0002002F0AFFB0EE0FC
S214007D38012002F0ABFB0AE00648C07A07E0FEF72F
S214007D48CFF904E0054B987801E00449C87808BDE7
S214007D58804501008801002078010020A8FCFF1F4C
S214007D6808B5052806D0062807D004283ED1274B94
S214007D78597004E0254B997001E0244BD970002A0D
S214007D8830D0022A2ED0043880B20A2830D8800094
S214007D981F4B1A58974608292CD81E4B1971DA79A2
S214007DA808208243DA712EE0042925D8194B597128
S214007DB8DA7902208243DA7125E00A1C123AD0B238
S214007DC80E281BD88B005A185000124B18801AE041
S214007DD8022915D8104B197015E0022912D80F4839
S214007DE8017010E0FFF766FF011C0CE0FF210AE0B7
S214007DF8002108E0002106E0002104E0002102E05E
S214007E08002100E00021081C08BDC046B0FCFF1F8A
S214007E18BC450100780100206201002059010020BD
S214007E2800B5114B9878421E9041D978002901D0A8
S214007E38022210430D4B1978002901D00422104362
S214007E480B4B1978002901D008221043064B597AA3
S214007E58002901D010221043064B1978002901D0BA
S214007E681022104300BDC0467801002062010020A1
S214007E78590100206A01002038B5057884782D4B12
S214007E881970002953D0022951D003294FD1E3078E
S214007E980DD5EB0703D50121274B997002E0002288
S214007EA8254882702448C27901218A43C271A307F3
S214007EB80DD5AB0703D501221F49CA7002E0002082
S214007EC81D4BD8701C48C37904229343C3716307BB
S214007ED808D56B0703D50122184B1A7002E000215B
S214007EE816480170230708D52B0703D50122144B23
S214007EF81A7002E0002112480170E3060CD5EB0662
S214007F0807D501220C4B5A720E48002102F0B6F92A
S214007F1802E0002108484172A30608D5AB0603D53F
S214007F2801210948017002E00025074C2570FFF77B
S214007F3877FF38BDB0FCFF1F7801002062010020E3
S214007F4859010020660100206A01002008B506F0E5
S214007F58C3FB08BD30B5421ED1B200200E2909D891
S214007F68054B0C01054800191A1C32C832C20568B0
S214007F781560012030BDC04658F1FF1F68F0FF1F8E
S214007F8810B5041E12D00F2811D91038C0B20E2111
S214007F98FCF7AAF8012318400E3CE4B20F2C08D8C8
S214007FA805E01C3CE4B20F2CFBD800E00124201CA2
S214007FB810BD0028F5D00E3CE4B20F2CF1D8F6E739
S214007FC810B5041C00290CD0081CFFF7C3FF0021BD
S214007FD8002815D0201C0B4910220BF078F9012137
S214007FE80EE0094B1878FFF7CBFFFFF7B3FF002129
S214007FF8002805D0201C034910220BF068F901213F
S214008008081C10BD58F1FF1FB9FCFF1F38B5011C2E
S214008018114810220BF05BF9104B18780130C1B2EA
S2140080289A2902D80D4A117002E010240B4D2C70C4
S2140080380A4B1878FFF7A4FF0138C0B20E280AD8F2
S2140080480101054B064A5418201C32CB32C01D6865
S214008058056006F0D9FA38BD58F1FF1FB9FCFF1FB6
S21400806868F0FF1F08B506F085F9042318688047EE
S21400807808BDC04608B50222044B9A7006F0DCFA22
S21400808806F00EFCFFF7EEFF08BDC046BCFCFF1F5F
S21400809808B506F005FC03F091FA08BD00B583B0F4
S2140080A808236A469380009001206946FDF7C8FCBD
S2140080B803B000BD00B583B000236A461371537140
S2140080C89371D371032111707F23537090707820B9
S2140080D8D0706846FFF7E2FF00E0C046FDF79AFB5F
S2140080E80028FAD003B000BDF0B5474680B482B089
S2140080F8041C002369460B704B708B70CB700B7199
S2140081084B718B71CB7186480278002A00D003E148
S21400811825790F262F1CB7433B1E01D0102F03D1FD
S2140081280020804E307008E07E490878C2B2002AE7
S21400813803D0022A00D0EFE067E0002B21D12B07FE
S21400814800D1E9E0227917073E0F072E00DDE3E0AD
S214008158754D002081235900685422782A702779A3
S2140081683E07320F80204700EA53681C211C08315E
S21400817802F050FEEC5B6B4B5C80281C01F0CEFBDB
S214008188CAE0102B00D0C7E02778674B1F70290776
S21400819828D1257AFF2D25D0002D00D1BCE0624ECF
S2140081A880214A009046B55200255E4F022038705E
S2140081B85E48002101F0FCFF5D48002101F0F8FF51
S2140081C823783B71701C211C0931062202F022FE1E
S2140081D80621798001227A7130784746F15D01F0F0
S2140081E853FB00E002252478212C00D094E03026AA
S2140081F8354368460570082545704A4B9D7114211D
S21400820881706846FFF74AFF86E04948962101F0E4
S214008218CFFF00280CD02578434805700324812713
S2140082287B00C45401F07AFB00213E4A117073E0CB
S2140082383C4E377923789F426ED121790F208143AF
S214008248202969D13A48002101F0B2FF354A55790C
S214008258267937073B0FAB4252D10135EFB20F2FC5
S21400826802D8304B5F7102E000212E4A51718025FA
S21400827868002D4E375A2B4B5A88B91A072918DC2E
S214008288294DA8180130211C0831BA1AD2B202F0BA
S214008298C1FD002481204600AC55224F802359009A
S2140082A86A5A788816187E803C70281C01F036FBBF
S2140082B832E01D4DA8180130211C0831072202F0B3
S2140082C8A9FD184E778807377780B379013BD9B26E
S2140082D8B171184A1170012900D8C04600291BD16F
S2140082E82478212C18D13025684605700826467053
S2140082F80C4FBE71142383706846FFF7CFFE0BE061
S214008308247809480470042181225500415501F05B
S21400831805FB0020034E307002B004BC9046F0BD4A
S214008328CCF7FF1F68F1FF1FC4F6FF1FB6F5FF1F47
S214008338C8F7FF1FCBFCFF1F70B5061C141C0020D7
S214008348FF2929D8154B1878002812D0144D8020FC
S2140083584200A952002081235A00A854681CCAB2B9
S214008368311C02F057FD2C7001240E490C700120B8
S21400837812E00D4D80225300E9520020812253005E
S214008388E854681CCAB2311C02F044FD2C7003493C
S2140083980C7101260E70012070BDC046CCF7FF1F79
S2140083A8B8F5FF1FC0F6FF1F80F4FF1F10B5041CAA
S2140083B8314B187803285ED121790F229143302952
S2140083C859D12378212B56D1207901070A0F012A83
S2140083D827D0022A36D0002A41D12848962101F013
S2140083E8E7FE002814D0264B264C20781870022169
S2140083F85970186801F056FA00221F4B1A70802030
S2140084084100645A332C36D180221F4B1A7032E052
S214008418194B207A9871617A0231198102221A70F2
S21400842829E01648002101F0C3FE1549154C2278AC
S2140084380A7008204870086801F034FA00210E4BCC
S214008448197018E00E480F490C780470062242701E
S214008458006801F027FA0020074B18700BE0084C5C
S214008468084B1878207005216170206801F01AFA08
S2140084780022014C227010BDCCF7FF1FC2F6FF1F6A
S214008488BCF6FF1F80F4FF1FB4F5FF1F70B586B05B
S21400849804AB00221A705A709A70DA701A715A7100
S2140084A89A71DA7175480178CCB2022C75D0032C13
S2140084B857D0012C14D0724E3378002B00D1C4E06C
S2140084C800226F4802706F4C201C6F4982256A0094
S2140084D80AF0FDFE694926780E7101230B70B4E098
S2140084E880225000674C255A072D1FD80F26331CAC
S2140084F82B406D462979B14319433140297104ADA3
S2140085082970604E711C1A1C6846113002F082FCF5
S21400851800205A4C20705D4C327822706070281CFF
S214008528FFF7BCFD206801F0BDF98EE01021684613
S214008538017104AE3170757012305249013106224D
S21400854802F068FC4D4C032323705148002101F0CB
S2140085582FFE0622628001206071301CFFF79EFD08
S21400856873E04B48962101F023FE00286DD0474B58
S214008578444D2978197002265E70186801F092F941
S21400858800203E4C207080225300ED5A332D5CD1DB
S21400859840490E7801360E7057E0384C201C0A30D9
S2140085A8218901F005FE00284FD0684605790F227C
S2140085B8154020231D43314E7179101C0840ECB23B
S2140085C89443251C05436A4615710131717104AB45
S2140085D81D70802148002B4C225A7688951B072D43
S2140085E819DD284DAE19711C68461130072202F0B5
S2140085F811FC04A8FFF752FD20498B79013BD8B23D
S214008608887100281DD103241C4A147020480021B4
S21400861801F0CEFD15E01B4DA9190131931BDAB206
S2140086286846113002F0F6FB002114480170174C1A
S2140086382A782270617004A8FFF730FD206801F0E0
S21400864831F90E4D6E8807366E8013490B78022B6B
S21400865812D11248962101F0ABFD00280CD0104824
S2140086686C4622780270032581267100455401F075
S21400867855F90020084B187006B070BDCCF7FF1FE0
S214008688C0F6FF1F80F4FF1FB8F5FF1FBCF6FF1FDC
S214008698C2F6FF1FB4F5FF1F68F1FF1FC8F7FF1FDC
S2140086A8C4F6FF1F70B584B06A4610700D782C09A2
S2140086B826016B4610790F22104015403043904330
S2140086C805431D71013102A8072202F0A3FB0A49DF
S2140086D80B78022B0CD81D01694608484219101C55
S2140086E870C970C00C6804600133034E337000E034
S2140086F8C04604B070BDC046B5F5FF1F84F5FF1F21
S214008708F0B5474680B484B0FDF78AF9344B1B7839
S214008718002B44D0581EC0B2314A107031496A4600
S214008728E0C9E0C20D68156000283BD0023BDEB207
S214008738013633010027BC462A4C181C1038C106DF
S214008748CA0F9046E619301C1030311CC4C8C4C184
S21400875807680F60624610329A4232D122E0A518A6
S214008768281C1030C2C8C2C507682F60103294464D
S214008778A218111C1031151CC4C9C4C50E682E6079
S214008788624610329A42EAD10CE06846FFF70EFEBF
S21400879802E06846FFF7A8FCFFF778FE0DE0FDF755
S2140087A847F9F9E7FDF744F906F0CEF86B461C7969
S2140087B80F208443302CECD1E7E704B004BC904685
S2140087C8F0BD4546002DCAD0A618301C1030351C02
S2140087D8C2C8C2C50168296010329A42BFD1E1E713
S2140087E8B5F5FF1F84F5FF1FF8B54F464646C0B4DB
S2140087F805F026FE234B1878844600282DD0224FF5
S21400880803264025214C002189460023021C013AF4
S214008818012010408046DA191178B14329431170B7
S21400882818194A46027001336146012919D814E01E
S214008838DA191078B0432843107019194A460A7096
S2140088480133D9190878B043284308701A194946DD
S21400885811700133D8B26045EAD30CBC90469946ED
S214008868F8BD40460028E3D0DA191178B143294309
S21400887811701A19484610700133D9B26145D7D31A
S214008888EBE7C046DAF7FF1FECFCFF1FCCFCFF1F28
S21400889808B50021202804D8034B1870FFF7A4FF5A
S2140088A80121081C08BDC046DAF7FF1FF0B5FF28EF
S2140088B81ED11A480678002E24D0194C502519487F
S2140088C800210023721E01271740E5541A1811705C
S2140088D80133012E17D815E0E5541F1839700133F7
S2140088E8E5541F1839700133DAB2B242F4D309E0FE
S2140088F80A4B1978814205D95022094C2254002582
S214008908084E3554F0BD002FE6D0E5541F183970D0
S2140089180133DAB2B242DFD3F4E7C046DAF7FF1F14
S214008928ECFCFF1FCCFCFF1F70B55248082101F075
S2140089383FFC031C0020002B00D19AE001F0C6FB88
S214008948011CFF20002900D193E04B480278002A3A
S21400895879D00024494E201C08F040FC012878D025
S214008968812874D0C1284DD16FE01E227255444923
S2140089784B5D990728D402211943414A515569008D
S2140089884A1992003F498A1852780132D2B2012A0F
S21400899807D8C12805D068004319980009184A70F6
S2140089A80AE06A0050198200364988180222427086
S2140089B80A210B4332484355314B595D04220A437A
S2140089C85A55201C08F0D6FD2D48435DDA0606D415
S2140089D840218B43012213432948435505E0502183
S2140089E88B430122134326484355254B585D810681
S2140089F821D420210843224A50551CE002311F4842
S214008A08015518E000282DD0802814D128E0E2234C
S214008A181A4843551A494A5DD10604D441239A4355
S214008A281748425507E051218A43154B5A5502E02C
S214008A380138124A10550134E4B20F4D2B78A34280
S214008A4889D8012015E0012013E0251C8DE7251C98
S214008A588BE7251C094A115D4BB21B2B85DCCDE73D
S214008A68251CD4E7251C054B185D41B21C31CEDB0E
S214008A78DEE770BDD8F7FF1FDAF7FF1FCCFCFF1F35
S214008A88ECFCFF1F0CFDFF1F08B5094B094A51787F
S214008A984031197091785970D2789A70C11C181C98
S214008AA81122FFF749FC0120034B187008BDC04689
S214008AB8DCF7FF1F90FEFF1F94FFFF1F08B5011C81
S214008AC803481122FFF738FC0122024B1A7008BD32
S214008AD8DCF7FF1F94FFFF1F10B5284B984242D0C3
S214008AE8274C0C34274988423ED0254C1834264A51
S214008AF8904239D0224C2434244B984234D0204C0F
S214008B083034234988422FD01D4C3C34214A9042A9
S214008B182AD01B4C4834204B984225D0184C543445
S214008B281E49884220D0164C60341D4A90421BD0FD
S214008B38134C6C341B4B984216D0114C78341A4997
S214008B48884211D00E4C8434184A90420CD00C4CF3
S214008B589034174B984207D01648027822203121C5
S214008B6800F06CFB09E0064C227A13480330616873
S214008B7802F050F9207AFFF787FF10BD87F1000052
S214008B882846010090F10000A8F100008AF10000D4
S214008B9891F10000A0F10000A1F100008BF10000A7
S214008BA883F1000092F1000094F10000A2F10000A9
S214008BB88CF1000090FEFF1FDCF7FF1F00B583B0A6
S214008BC881235800614A115A032900D0B5E0101CC9
S214008BD892781102C378C81882B26946CA80C888D3
S214008BE85B4B984209D96946CA885A48824204D8D3
S214008BF86A46D088FFF770FFA5E06B46D988564AC4
S214008C08914219D96846C188544B994214D8684687
S214008C18C388103BD9B252480330FFF7D1F9002871
S214008C2803D01020FFF730FF8DE048490A7822204D
S214008C38312100F003FB86E06846C28849498A422B
S214008C4812D96B46D888484A90420DD86946C888D3
S214008C5880229301C11888B2FFF72CF8404AD070DA
S214008C680120FFF711FF6EE0694606310B883F4882
S214008C78834251D00AD83E4A934215D33D498B4287
S214008C8819D9D020020293420ED11FE03A498B42EE
S214008C982CD003D83948834206D11FE0384A93427D
S214008CA842D038498B4229D0284B1A7822203121C5
S214008CB800F0C4FA47E06946C888C0B2FEF7E6FF87
S214008CC8274AD0700120FFF7DFFE3CE0FFF7A8F840
S214008CD8234BD8700120FFF7D7FE34E02048033036
S214008CE808F060FCC820FFF7CFFE2CE01C480330D5
S214008CF808F06EFDF020FFF7C7FE24E02248026861
S214008D08174B110ED970100C1871110A59719A71F7
S214008D180420FFF7B9FE16E01C490A78104BDA70F3
S214008D280120FFF7B1FE0EE00D4B0022DA7001209D
S214008D3818710220FFF7A8FE05E0044B1A782220D7
S214008D48132100F07BFA03B000BDC04690FEFF1F5B
S214008D5882F10000ABF100000FF100001FF10000E7
S214008D68DCF7FF1FFFDF00000EE0000086F10000C2
S214008D7801C0000003C00000DEFD0000DDFD0000AD
S214008D88E2FD0000FFFD0000FCBF01008CFEFF1F97
S214008D9810B56F4B1878212800D0D8E06D490A78AE
S214008DA8002A00D1CEE06A4CA3781802E17844186D
S214008DB8694A944200D18FE004DC684BE018022828
S214008DC80AD81BE0664A944262D06648844200D1BC
S214008DD8A2E0654B9C4237D0812461005C4A505A19
S214008DE8032805D82E201321212200F027FAAEE00A
S214008DF82E203121212200F021FAA8E081214C0002
S214008E08534A135B042B19D15848017802290FD10D
S214008E182E20FFF74FF94E4CE0782179FEF740FFF9
S214008E28A2781002E378C11888B200F09FFB8EE0A3
S214008E382E203321212200F001FA88E02E2013216B
S214008E48212200F0FBF982E081235C0040490A5B9E
S214008E58142A17D145480378022B0DD12E20FFF788
S214008E6829F943484349112201F0D4FFFFF76EF869
S214008E783D4800F07BFB6AE02E203321212200F0DB
S214008E88DDF964E02E201321212200F0D7F95EE0F8
S214008E9881235C002E490A5B172A17D133480378CA
S214008EA8022B0DD12E20FFF705F93348314914223D
S214008EB801F0B0FFFFF74AF8294800F057FB46E0F4
S214008EC82E203321212200F0B9F940E02E2013216C
S214008ED8212200F0B3F93AE0812461001C4A505A76
S214008EE8132813D1214B1C78042C09D12E20FFF708
S214008EF8E1F82048FFF78AF8174800F037FB26E025
S214008F082E203321212200F099F920E02E2013216B
S214008F18212200F093F91AE0812461000C4A505A85
S214008F28F32809D12E20FFF7C5F8124808F0B6FD39
S214008F380C4800F01BFB0AE02E201321212200F02B
S214008F487DF904E02E207F21212200F077F910BD5C
S214008F5890FEFF1F8CFEFF1F10F10000FF3FFFFF73
S214008F68A8F10000DEFD000090F100008DFEFF1F56
S214008F787CF1FF1F94FEFF1F90F1FF1F38B5654B6D
S214008F889978DA7864480478002C00D1BAE0634B04
S214008F981878022800D0AEE00C02121995B2604B81
S214008FA8E81881B2022905D95E4CA54202D05E4A6D
S214008FB8954247D1574B187900281CD18124620066
S214008FC854498B5A042B0FD1584C0022E27080214A
S214008FD88B01ED18A8B200210022FEF7C1FE207111
S214008FE80220FFF751FD93E04A4802782F2013210C
S214008FF800F024F98CE003281DD181225400454B4B
S214009008185B052810D1494C0321E1708022930192
S214009018E81880B23F4D69790322FEF7A1FE207159
S2140090280220FFF731FD73E03A4D2A782F201321EE
S21400903800F004F96CE037490A782F20122100F076
S214009048FDF865E0D0231802854212D08125690014
S214009058304C625A032A05D822782F20312100F096
S214009068EDF855E02B4B1A782F20132100F0E6F880
S2140090784EE0284D2979002919D181204500254937
S2140090884C5B062C0CD1294C0025E570284800219D
S214009098FEF7F2FE207165710320FFF7F5FC37E056
S2140090A81C4A12782F20132100F0C8F830E0032954
S2140090B81AD1812253001748C55A082D0DD11B4CCA
S2140090C80322E2701A480321FEF7D6FE2071002319
S2140090D863710320FFF7D8FC1AE00E490A782F20A0
S2140090E8132100F0ABF813E00A4C22782F20122147
S2140090F800F0A4F80CE007490A782F20332100F086
S2140091089DF805E0034D2A782F207F2100F096F879
S21400911838BDC04690FEFF1F8CFEFF1F8DFEFF1F4A
S214009128FC1F00000DE000000EE00000DCF7FF1F4B
S21400913895FEFF1F10B51C4B1878212833D11B4904
S2140091480A78022A2AD0812463001748C15A0829B7
S2140091581ED1021C8478242C1AD1031CC079010263
S214009168127A8C18D87801061A79100409189A7990
S21400917888185B79190241180D486322027001307D
S214009188E2B201F047FE0134A0B2FFF797FC0AE00E
S21400919823201321212200F051F804E023207F2108
S2140091A8212200F04BF810BD90FEFF1F8CFEFF1F1B
S2140091B8DCF7FF1F10B588B001AB59221A700421DE
S2140091C859701A4AD4789C701479DC7052791A71DE
S2140091D8174C225C4B2422405A7101249C71D97189
S2140091E81C7212215972420010188100114A501838
S2140091F881789972E122DA721C738268110C5973AD
S214009208110A9973DA73D0221A745C74FF21997460
S214009218DC740C221A7500795875181C1621212240
S214009228FFF78AF8044B1C7008B010BD90FEFF1FAD
S214009238ECFCFF1F0CFDFF1F94FFFF1F10B582B04C
S214009248DF2A09D10B1C113B012B11D931290FD06C
S2140092587E290DD07F290BD07F236C462370607043
S214009268A17068460321FFF767F8012201480270DB
S21400927802B010BD94FFFF1F10B582B04BB2002B92
S21400928815DB40306C4620707F2001406B466170CD
S214009298002469469C703220D87001241C71F4237F
S2140092A84B7168460621FFF747F8024A147002B069
S2140092B810BDC04694FFFF1F10B582B067236946ED
S2140092C80B70487027480278032A04D1264B197871
S2140092D802290AD105E0022A42D1234C2378042B1E
S2140092E818D10021214B196028E001201E4C20705F
S2140092F809F098FF1D4C0204226009F093FF2368CA
S214009308C118002902D01948016017E00124174A3D
S214009318146013E003211448017009F083FF134C0E
S2140093280204226009F07EFF2368C118002902D0D3
S2140093380E48016002E001240C4A14600B480468D9
S214009348220E69468A70230CCB70200A08714C716D
S214009358684606212122FEF7EFFF0124044A14700E
S21400936802B010BD8CFEFF1F8DFEFF1FD8F8FF1F32
S21400937894FFFF1F00B583B04BB2002B0DDB4030C7
S2140093886B4618707F2001406B465970684602216C
S214009398FEF7D2FF012202490A7003B000BDC0469C
S2140093A894FFFF1F10B582B071236C46237060705F
S2140093B8080AA070E1702271FF221302994205D1B3
S2140093C8684604212122FEF7B7FF04E06846052117
S2140093D82122FEF7B1FF0121014C217002B010BD19
S2140093E894FFFF1F10B5011C104B984213D00120A4
S2140093F80F4A043210CA8C420FD10DE0131C10CB52
S2140094088C4209D00130C0B254681A1D8C4207D16C
S21400941802E0FF2000E0002010BD0130C0B2EDE7FA
S2140094280130C0B22028E9D1F3E7C0461C009600F8
S214009438F8480100F0B583B00F1C43B2002B21DBBF
S214009448144B1E1C203600241D78154201D001340A
S214009458E4B2591C5B78134218D015E059266A46C0
S21400946816707F25284050704B2090700126D670C5
S214009478002111715471684606213A1CFEF75CFFFC
S214009488054F3E7003B0F0BD0134E4B24B1CB34246
S214009498DAD1E3E7ECFCFF1F94FFFF1FF0B55F4649
S2140094A856464D464446F0B4A3B080468C462B4CF0
S2140094B82B4E03232078024201D1FF2A13D101AD97
S2140094C831680F0CEF54591CC9B237683F0A6F54FD
S2140094D8991CCFB23168E955DF1CFFB24B21014019
S2140094E8E9550433DBB2601C8146043667783A4295
S2140094F818D12AE001AA592616707F254146294028
S21400950851704B209070101C191C6246FEF714FF11
S2140095180124144B1C7023B03CBC90469946A246C6
S214009528AB46F0BD356801AC290CE154581CC0B2F6
S214009538290A2154981CC1B26554DD1CE9B24B2097
S214009548074067540433DBB201E0FF2AEAD04C46F2
S21400955801340436044FBC42ACD1CBE7ECFCFF1F09
S214009568F848010094FFFF1F0CFDFF1F00B583B0ED
S21400957801AB6E221A70010A59709870181C0321E4
S2140095882122FEF7D9FE0120014B187003B000BD5A
S21400959894FFFF1F00B583B00A1C40306B46187056
S2140095A868460121FEF7C8FE01220248027003B091
S2140095B800BDC04694FFFF1F10B5AB4B9C781878CB
S2140095C8212800D04EE1A9490A78002A05D127208B
S2140095D87F212122FFF732FE44E181235800A24969
S2140095E80A5A012A04D1272013212122FFF726FE32
S2140095F87F231C40E0B20A2803D8A4009C490A59D5
S214009608974681246300984AD15A022907D006292A
S21400961805D0272013212122FFF710FE22E127205C
S21400962812212122FFF70AFE1CE1272012212122FF
S214009638FFF704FE16E18D4B1978032919D181200E
S2140096484400894A135B022B0DD18A4908780528FD
S21400965805D1272037212122FFF7F0FD02E101205E
S214009668FFF72AFEFEE0272013212122FFF7E6FD5A
S214009678F8E027207E212122FFF7E0FDF2E07B4C70
S214009688217803295DD181225000774B1C5A062C7D
S21400969851D178490A78052A05D127203721212271
S2140096A8FFF7CCFDDEE0012A3FD16F4BD8780402E5
S2140096B81979621810025C7901190A029B79D01888
S2140096C86D4C20606D490968012200F03BFD0028BA
S2140096D80BD00221674801700022694C22702720AF
S2140096E802212122FFF746FEBCE0654802780132D7
S2140096F8D3B20370012B0FD90220614A107061485B
S214009708002100F0A7FD05245A4B1C70272036219F
S2140097182122FFF793FDA5E0002456490C70272068
S21400972835212122FFF78AFD9CE0272024212122CB
S214009738FFF784FD96E0272013212122FFF77EFD00
S21400974890E027207E212122FFF778FD8AE0474A0D
S2140097581078022819D181235C0043490A5B022A43
S2140097680DD144480378052B05D12720372121221F
S214009778FFF764FD76E00520FFF79EFD72E02720E0
S21400978813212122FFF75AFD6CE027207E21212293
S214009798FFF754FD66E0354B187802285DD1812422
S2140097A86100314A535A062B51D132480478052CA9
S2140097B805D1272037212122FFF740FD52E0032C50
S2140097C83FD12949CA78130208791C1823024A7916
S2140097D89818040289796018274B1860274A116878
S2140097E8022200F0AFFC00280BD00420214B187092
S2140097F8002423490C70272006212122FFF7BAFDF2
S21400980830E01F4804780134E1B2017001290FD90D
S21400981802201B4C20701B48002100F01BFD052170
S214009828144A1170272036212122FFF707FD19E078
S2140098380022104B1A70272035212122FFF7FEFC44
S21400984810E0272024212122FFF7F8FC0AE0272031
S21400985813212122FFF7F2FC04E027207E21212293
S214009868FFF7ECFC10BDC04690FEFF1F8CFEFF1FE6
S214009878E04601008DFEFF1FE0F8FF1FD8F8FF1F27
S214009888D3F8FF1FD0F8FF1F00B5044B1878002840
S21400989802D1012202490A7000BDC04694FFFF1F8C
S2140098A8DCF8FF1F00B583B001AB82B21880100A3F
S2140098B8082829D859784BB201229A40101CB221A0
